{
  "_format": "hh-sol-artifact-1",
  "contractName": "TallyRallyCombined",
  "sourceName": "contracts/TallyRallyCombined.sol",
  "abi": [
    {
      "inputs": [],
      "stateMutability": "nonpayable",
      "type": "constructor"
    },
    {
      "inputs": [
        {
          "internalType": "address",
          "name": "spender",
          "type": "address"
        },
        {
          "internalType": "uint256",
          "name": "allowance",
          "type": "uint256"
        },
        {
          "internalType": "uint256",
          "name": "needed",
          "type": "uint256"
        }
      ],
      "name": "ERC20InsufficientAllowance",
      "type": "error"
    },
    {
      "inputs": [
        {
          "internalType": "address",
          "name": "sender",
          "type": "address"
        },
        {
          "internalType": "uint256",
          "name": "balance",
          "type": "uint256"
        },
        {
          "internalType": "uint256",
          "name": "needed",
          "type": "uint256"
        }
      ],
      "name": "ERC20InsufficientBalance",
      "type": "error"
    },
    {
      "inputs": [
        {
          "internalType": "address",
          "name": "approver",
          "type": "address"
        }
      ],
      "name": "ERC20InvalidApprover",
      "type": "error"
    },
    {
      "inputs": [
        {
          "internalType": "address",
          "name": "receiver",
          "type": "address"
        }
      ],
      "name": "ERC20InvalidReceiver",
      "type": "error"
    },
    {
      "inputs": [
        {
          "internalType": "address",
          "name": "sender",
          "type": "address"
        }
      ],
      "name": "ERC20InvalidSender",
      "type": "error"
    },
    {
      "inputs": [
        {
          "internalType": "address",
          "name": "spender",
          "type": "address"
        }
      ],
      "name": "ERC20InvalidSpender",
      "type": "error"
    },
    {
      "anonymous": false,
      "inputs": [
        {
          "indexed": true,
          "internalType": "address",
          "name": "owner",
          "type": "address"
        },
        {
          "indexed": true,
          "internalType": "address",
          "name": "spender",
          "type": "address"
        },
        {
          "indexed": false,
          "internalType": "uint256",
          "name": "value",
          "type": "uint256"
        }
      ],
      "name": "Approval",
      "type": "event"
    },
    {
      "anonymous": false,
      "inputs": [
        {
          "indexed": true,
          "internalType": "address",
          "name": "player",
          "type": "address"
        }
      ],
      "name": "LotteryEntry",
      "type": "event"
    },
    {
      "anonymous": false,
      "inputs": [
        {
          "indexed": true,
          "internalType": "address",
          "name": "winner",
          "type": "address"
        },
        {
          "indexed": false,
          "internalType": "uint256",
          "name": "amount",
          "type": "uint256"
        }
      ],
      "name": "LotteryWin",
      "type": "event"
    },
    {
      "anonymous": false,
      "inputs": [
        {
          "indexed": false,
          "internalType": "uint256",
          "name": "id",
          "type": "uint256"
        },
        {
          "indexed": false,
          "internalType": "address",
          "name": "dataBuyer",
          "type": "address"
        },
        {
          "indexed": false,
          "internalType": "enum TallyRallyCombined.SurveyType",
          "name": "surveyType",
          "type": "uint8"
        },
        {
          "indexed": false,
          "internalType": "string",
          "name": "content",
          "type": "string"
        },
        {
          "indexed": false,
          "internalType": "string",
          "name": "answerCid",
          "type": "string"
        }
      ],
      "name": "SurveyAnswered",
      "type": "event"
    },
    {
      "anonymous": false,
      "inputs": [
        {
          "indexed": false,
          "internalType": "uint256",
          "name": "id",
          "type": "uint256"
        },
        {
          "indexed": false,
          "internalType": "address",
          "name": "dataBuyer",
          "type": "address"
        },
        {
          "indexed": false,
          "internalType": "enum TallyRallyCombined.SurveyType",
          "name": "surveyType",
          "type": "uint8"
        },
        {
          "indexed": false,
          "internalType": "string",
          "name": "content",
          "type": "string"
        }
      ],
      "name": "SurveyCreated",
      "type": "event"
    },
    {
      "anonymous": false,
      "inputs": [
        {
          "indexed": true,
          "internalType": "address",
          "name": "from",
          "type": "address"
        },
        {
          "indexed": true,
          "internalType": "address",
          "name": "to",
          "type": "address"
        },
        {
          "indexed": false,
          "internalType": "uint256",
          "name": "value",
          "type": "uint256"
        }
      ],
      "name": "Transfer",
      "type": "event"
    },
    {
      "inputs": [
        {
          "internalType": "address",
          "name": "owner",
          "type": "address"
        },
        {
          "internalType": "address",
          "name": "spender",
          "type": "address"
        }
      ],
      "name": "allowance",
      "outputs": [
        {
          "internalType": "uint256",
          "name": "",
          "type": "uint256"
        }
      ],
      "stateMutability": "view",
      "type": "function"
    },
    {
      "inputs": [
        {
          "internalType": "uint256",
          "name": "id",
          "type": "uint256"
        },
        {
          "internalType": "string",
          "name": "answerCid",
          "type": "string"
        }
      ],
      "name": "answerSurvey",
      "outputs": [],
      "stateMutability": "nonpayable",
      "type": "function"
    },
    {
      "inputs": [
        {
          "internalType": "uint256",
          "name": "id",
          "type": "uint256"
        },
        {
          "internalType": "string",
          "name": "answerCid",
          "type": "string"
        }
      ],
      "name": "answerSurveyMintTokenForOwner",
      "outputs": [],
      "stateMutability": "nonpayable",
      "type": "function"
    },
    {
      "inputs": [
        {
          "internalType": "address",
          "name": "spender",
          "type": "address"
        },
        {
          "internalType": "uint256",
          "name": "value",
          "type": "uint256"
        }
      ],
      "name": "approve",
      "outputs": [
        {
          "internalType": "bool",
          "name": "",
          "type": "bool"
        }
      ],
      "stateMutability": "nonpayable",
      "type": "function"
    },
    {
      "inputs": [
        {
          "internalType": "address",
          "name": "account",
          "type": "address"
        }
      ],
      "name": "balanceOf",
      "outputs": [
        {
          "internalType": "uint256",
          "name": "",
          "type": "uint256"
        }
      ],
      "stateMutability": "view",
      "type": "function"
    },
    {
      "inputs": [
        {
          "internalType": "enum TallyRallyCombined.SurveyType",
          "name": "surveyType",
          "type": "uint8"
        },
        {
          "internalType": "string",
          "name": "content",
          "type": "string"
        }
      ],
      "name": "createSurvey",
      "outputs": [],
      "stateMutability": "nonpayable",
      "type": "function"
    },
    {
      "inputs": [
        {
          "internalType": "enum TallyRallyCombined.SurveyType",
          "name": "surveyType",
          "type": "uint8"
        },
        {
          "internalType": "string",
          "name": "content",
          "type": "string"
        }
      ],
      "name": "createSurveyForBuyer",
      "outputs": [],
      "stateMutability": "payable",
      "type": "function"
    },
    {
      "inputs": [],
      "name": "decimals",
      "outputs": [
        {
          "internalType": "uint8",
          "name": "",
          "type": "uint8"
        }
      ],
      "stateMutability": "view",
      "type": "function"
    },
    {
      "inputs": [],
      "name": "getSurveys",
      "outputs": [
        {
          "components": [
            {
              "internalType": "uint256",
              "name": "id",
              "type": "uint256"
            },
            {
              "internalType": "address",
              "name": "dataBuyer",
              "type": "address"
            },
            {
              "internalType": "enum TallyRallyCombined.SurveyType",
              "name": "surveyType",
              "type": "uint8"
            },
            {
              "internalType": "string",
              "name": "content",
              "type": "string"
            },
            {
              "internalType": "string[]",
              "name": "answerCids",
              "type": "string[]"
            }
          ],
          "internalType": "struct TallyRallyCombined.Survey[]",
          "name": "",
          "type": "tuple[]"
        }
      ],
      "stateMutability": "view",
      "type": "function"
    },
    {
      "inputs": [
        {
          "internalType": "address",
          "name": "to",
          "type": "address"
        },
        {
          "internalType": "uint256",
          "name": "amount",
          "type": "uint256"
        }
      ],
      "name": "mint",
      "outputs": [],
      "stateMutability": "nonpayable",
      "type": "function"
    },
    {
      "inputs": [],
      "name": "name",
      "outputs": [
        {
          "internalType": "string",
          "name": "",
          "type": "string"
        }
      ],
      "stateMutability": "view",
      "type": "function"
    },
    {
      "inputs": [],
      "name": "owner",
      "outputs": [
        {
          "internalType": "address",
          "name": "",
          "type": "address"
        }
      ],
      "stateMutability": "view",
      "type": "function"
    },
    {
      "inputs": [],
      "name": "play",
      "outputs": [
        {
          "internalType": "bool",
          "name": "didWin",
          "type": "bool"
        }
      ],
      "stateMutability": "nonpayable",
      "type": "function"
    },
    {
      "inputs": [],
      "name": "playLottery",
      "outputs": [],
      "stateMutability": "nonpayable",
      "type": "function"
    },
    {
      "inputs": [],
      "name": "symbol",
      "outputs": [
        {
          "internalType": "string",
          "name": "",
          "type": "string"
        }
      ],
      "stateMutability": "view",
      "type": "function"
    },
    {
      "inputs": [],
      "name": "totalSupply",
      "outputs": [
        {
          "internalType": "uint256",
          "name": "",
          "type": "uint256"
        }
      ],
      "stateMutability": "view",
      "type": "function"
    },
    {
      "inputs": [
        {
          "internalType": "address",
          "name": "to",
          "type": "address"
        },
        {
          "internalType": "uint256",
          "name": "value",
          "type": "uint256"
        }
      ],
      "name": "transfer",
      "outputs": [
        {
          "internalType": "bool",
          "name": "",
          "type": "bool"
        }
      ],
      "stateMutability": "nonpayable",
      "type": "function"
    },
    {
      "inputs": [
        {
          "internalType": "address",
          "name": "from",
          "type": "address"
        },
        {
          "internalType": "address",
          "name": "to",
          "type": "address"
        },
        {
          "internalType": "uint256",
          "name": "value",
          "type": "uint256"
        }
      ],
      "name": "transferFrom",
      "outputs": [
        {
          "internalType": "bool",
          "name": "",
          "type": "bool"
        }
      ],
      "stateMutability": "nonpayable",
      "type": "function"
    }
  ],
  "bytecode": "0x6080604052662386f26fc100006006553480156200001c57600080fd5b506040518060400160405280600581526020017f4d415942450000000000000000000000000000000000000000000000000000008152506040518060400160405280600481526020017f4d4159420000000000000000000000000000000000000000000000000000000081525081600390816200009a919062000370565b508060049081620000ac919062000370565b50505033600560006101000a81548173ffffffffffffffffffffffffffffffffffffffff021916908373ffffffffffffffffffffffffffffffffffffffff16021790555062000457565b600081519050919050565b7f4e487b7100000000000000000000000000000000000000000000000000000000600052604160045260246000fd5b7f4e487b7100000000000000000000000000000000000000000000000000000000600052602260045260246000fd5b600060028204905060018216806200017857607f821691505b6020821081036200018e576200018d62000130565b5b50919050565b60008190508160005260206000209050919050565b60006020601f8301049050919050565b600082821b905092915050565b600060088302620001f87fffffffffffffffffffffffffffffffffffffffffffffffffffffffffffffffff82620001b9565b620002048683620001b9565b95508019841693508086168417925050509392505050565b6000819050919050565b6000819050919050565b6000620002516200024b62000245846200021c565b62000226565b6200021c565b9050919050565b6000819050919050565b6200026d8362000230565b620002856200027c8262000258565b848454620001c6565b825550505050565b600090565b6200029c6200028d565b620002a981848462000262565b505050565b5b81811015620002d157620002c560008262000292565b600181019050620002af565b5050565b601f8211156200032057620002ea8162000194565b620002f584620001a9565b8101602085101562000305578190505b6200031d6200031485620001a9565b830182620002ae565b50505b505050565b600082821c905092915050565b6000620003456000198460080262000325565b1980831691505092915050565b600062000360838362000332565b9150826002028217905092915050565b6200037b82620000f6565b67ffffffffffffffff81111562000397576200039662000101565b5b620003a382546200015f565b620003b0828285620002d5565b600060209050601f831160018114620003e85760008415620003d3578287015190505b620003df858262000352565b8655506200044f565b601f198416620003f88662000194565b60005b828110156200042257848901518255600182019150602085019450602081019050620003fb565b868310156200044257848901516200043e601f89168262000332565b8355505b6001600288020188555050505b505050505050565b612e3680620004676000396000f3fe6080604052600436106101095760003560e01c80637dec829611610095578063a9059cbb11610064578063a9059cbb14610360578063c1e82da01461039d578063d4cd77a3146103c6578063dd62ed3e146103dd578063e82ea2931461041a57610109565b80637dec8296146102b45780638da5cb5b146102df57806393e84cd91461030a57806395d89b411461033557610109565b806323b872dd116100dc57806323b872dd146101ca578063313ce5671461020757806340c10f19146102325780634fd22cac1461025b57806370a082311461027757610109565b806306fdde031461010e578063095ea7b3146101395780630c4639a51461017657806318160ddd1461019f575b600080fd5b34801561011a57600080fd5b50610123610443565b6040516101309190611c28565b60405180910390f35b34801561014557600080fd5b50610160600480360381019061015b9190611cf2565b6104d5565b60405161016d9190611d4d565b60405180910390f35b34801561018257600080fd5b5061019d60048036038101906101989190611ec2565b6104f8565b005b3480156101ab57600080fd5b506101b46106d9565b6040516101c19190611f2d565b60405180910390f35b3480156101d657600080fd5b506101f160048036038101906101ec9190611f48565b6106e3565b6040516101fe9190611d4d565b60405180910390f35b34801561021357600080fd5b5061021c610712565b6040516102299190611fb7565b60405180910390f35b34801561023e57600080fd5b5061025960048036038101906102549190611cf2565b61071b565b005b61027560048036038101906102709190611ec2565b610729565b005b34801561028357600080fd5b5061029e60048036038101906102999190611fd2565b6107de565b6040516102ab9190611f2d565b60405180910390f35b3480156102c057600080fd5b506102c9610826565b6040516102d691906122df565b60405180910390f35b3480156102eb57600080fd5b506102f4610aec565b6040516103019190612310565b60405180910390f35b34801561031657600080fd5b5061031f610b12565b60405161032c9190611d4d565b60405180910390f35b34801561034157600080fd5b5061034a610daf565b6040516103579190611c28565b60405180910390f35b34801561036c57600080fd5b5061038760048036038101906103829190611cf2565b610e41565b6040516103949190611d4d565b60405180910390f35b3480156103a957600080fd5b506103c460048036038101906103bf919061232b565b610e64565b005b3480156103d257600080fd5b506103db610f43565b005b3480156103e957600080fd5b5061040460048036038101906103ff9190612387565b6112b1565b6040516104119190611f2d565b60405180910390f35b34801561042657600080fd5b50610441600480360381019061043c919061232b565b611338565b005b606060038054610452906123f6565b80601f016020809104026020016040519081016040528092919081815260200182805461047e906123f6565b80156104cb5780601f106104a0576101008083540402835291602001916104cb565b820191906000526020600020905b8154815290600101906020018083116104ae57829003601f168201915b5050505050905090565b6000806104e0611406565b90506104ed81858561140e565b600191505092915050565b60008067ffffffffffffffff81111561051457610513611d97565b5b60405190808252806020026020018201604052801561054757816020015b60608152602001906001900390816105325790505b50905060006040518060a0016040528060075481526020013373ffffffffffffffffffffffffffffffffffffffff16815260200185600181111561058e5761058d612049565b5b8152602001848152602001838152509050806008600060075481526020019081526020016000206000820151816000015560208201518160010160006101000a81548173ffffffffffffffffffffffffffffffffffffffff021916908373ffffffffffffffffffffffffffffffffffffffff16021790555060408201518160010160146101000a81548160ff0219169083600181111561063157610630612049565b5b0217905550606082015181600201908161064b91906125d3565b506080820151816003019080519060200190610668929190611a67565b5090505060016007600082825461067f91906126d4565b925050819055507f52b91a8adb16d2c942f8afd364522fa27a2ab2df5adb982db50443fc31c0529081600001518260200151836040015184606001516040516106cb9493929190612717565b60405180910390a150505050565b6000600254905090565b6000806106ee611406565b90506106fb858285611420565b6107068585856114b4565b60019150509392505050565b60006012905090565b61072582826115a8565b5050565b600654341461076d576040517f08c379a0000000000000000000000000000000000000000000000000000000008152600401610764906127af565b60405180910390fd5b3073ffffffffffffffffffffffffffffffffffffffff16630c4639a583836040518363ffffffff1660e01b81526004016107a89291906127cf565b600060405180830381600087803b1580156107c257600080fd5b505af11580156107d6573d6000803e3d6000fd5b505050505050565b60008060008373ffffffffffffffffffffffffffffffffffffffff1673ffffffffffffffffffffffffffffffffffffffff168152602001908152602001600020549050919050565b6060600060075467ffffffffffffffff81111561084657610845611d97565b5b60405190808252806020026020018201604052801561087f57816020015b61086c611ac0565b8152602001906001900390816108645790505b50905060005b600754811015610ae457600860008281526020019081526020016000206040518060a0016040529081600082015481526020016001820160009054906101000a900473ffffffffffffffffffffffffffffffffffffffff1673ffffffffffffffffffffffffffffffffffffffff1673ffffffffffffffffffffffffffffffffffffffff1681526020016001820160149054906101000a900460ff16600181111561093257610931612049565b5b600181111561094457610943612049565b5b8152602001600282018054610958906123f6565b80601f0160208091040260200160405190810160405280929190818152602001828054610984906123f6565b80156109d15780601f106109a6576101008083540402835291602001916109d1565b820191906000526020600020905b8154815290600101906020018083116109b457829003601f168201915b5050505050815260200160038201805480602002602001604051908101604052809291908181526020016000905b82821015610aab578382906000526020600020018054610a1e906123f6565b80601f0160208091040260200160405190810160405280929190818152602001828054610a4a906123f6565b8015610a975780601f10610a6c57610100808354040283529160200191610a97565b820191906000526020600020905b815481529060010190602001808311610a7a57829003601f168201915b5050505050815260200190600101906109ff565b5050505081525050828281518110610ac657610ac56127ff565b5b60200260200101819052508080610adc9061282e565b915050610885565b508091505090565b600560009054906101000a900473ffffffffffffffffffffffffffffffffffffffff1681565b6000803073ffffffffffffffffffffffffffffffffffffffff166370a08231336040518263ffffffff1660e01b8152600401610b4e9190612310565b602060405180830381865afa158015610b6b573d6000803e3d6000fd5b505050506040513d601f19601f82011682018060405250810190610b8f919061288b565b905060003073ffffffffffffffffffffffffffffffffffffffff1663dd62ed3e33306040518363ffffffff1660e01b8152600401610bce9291906128b8565b602060405180830381865afa158015610beb573d6000803e3d6000fd5b505050506040513d601f19601f82011682018060405250810190610c0f919061288b565b90506001821015610c55576040517f08c379a0000000000000000000000000000000000000000000000000000000008152600401610c4c9061292d565b60405180910390fd5b6001811015610c99576040517f08c379a0000000000000000000000000000000000000000000000000000000008152600401610c9090612999565b60405180910390fd5b3073ffffffffffffffffffffffffffffffffffffffff166323b872dd33600060016040518463ffffffff1660e01b8152600401610cd8939291906129f4565b6020604051808303816000875af1158015610cf7573d6000803e3d6000fd5b505050506040513d601f19601f82011682018060405250810190610d1b9190612a57565b610d5a576040517f08c379a0000000000000000000000000000000000000000000000000000000008152600401610d5190612ad0565b60405180910390fd5b3373ffffffffffffffffffffffffffffffffffffffff167f4c52daac3b1aee9c194804b914ba765bb9f1f2716030b0ac18ef25718a6962a060405160405180910390a2601e610da761162a565b109250505090565b606060048054610dbe906123f6565b80601f0160208091040260200160405190810160405280929190818152602001828054610dea906123f6565b8015610e375780601f10610e0c57610100808354040283529160200191610e37565b820191906000526020600020905b815481529060010190602001808311610e1a57829003601f168201915b5050505050905090565b600080610e4c611406565b9050610e598185856114b4565b600191505092915050565b3073ffffffffffffffffffffffffffffffffffffffff1663e82ea29383836040518363ffffffff1660e01b8152600401610e9f929190612af0565b600060405180830381600087803b158015610eb957600080fd5b505af1158015610ecd573d6000803e3d6000fd5b505050503073ffffffffffffffffffffffffffffffffffffffff166340c10f193360016040518363ffffffff1660e01b8152600401610f0d929190612b20565b600060405180830381600087803b158015610f2757600080fd5b505af1158015610f3b573d6000803e3d6000fd5b505050505050565b60003073ffffffffffffffffffffffffffffffffffffffff166370a08231336040518263ffffffff1660e01b8152600401610f7e9190612310565b602060405180830381865afa158015610f9b573d6000803e3d6000fd5b505050506040513d601f19601f82011682018060405250810190610fbf919061288b565b905060003073ffffffffffffffffffffffffffffffffffffffff1663dd62ed3e33306040518363ffffffff1660e01b8152600401610ffe9291906128b8565b602060405180830381865afa15801561101b573d6000803e3d6000fd5b505050506040513d601f19601f8201168201806040525081019061103f919061288b565b90506001821015611085576040517f08c379a000000000000000000000000000000000000000000000000000000000815260040161107c9061292d565b60405180910390fd5b60018110156110c9576040517f08c379a00000000000000000000000000000000000000000000000000000000081526004016110c090612999565b60405180910390fd5b3373ffffffffffffffffffffffffffffffffffffffff167f4c52daac3b1aee9c194804b914ba765bb9f1f2716030b0ac18ef25718a6962a060405160405180910390a26000601e61111861162a565b10905080156112ac5760003073ffffffffffffffffffffffffffffffffffffffff166370a08231306040518263ffffffff1660e01b815260040161115c9190612310565b602060405180830381865afa158015611179573d6000803e3d6000fd5b505050506040513d601f19601f8201168201806040525081019061119d919061288b565b90503373ffffffffffffffffffffffffffffffffffffffff167f59eb56f0aaebc4c2e1de6e254bc52af79350363a072c9ef59851f0d0861a9642826040516111e59190611f2d565b60405180910390a23073ffffffffffffffffffffffffffffffffffffffff1663a9059cbb33836040518363ffffffff1660e01b8152600401611228929190612b49565b6020604051808303816000875af1158015611247573d6000803e3d6000fd5b505050506040513d601f19601f8201168201806040525081019061126b9190612a57565b6112aa576040517f08c379a00000000000000000000000000000000000000000000000000000000081526004016112a190612bbe565b60405180910390fd5b505b505050565b6000600160008473ffffffffffffffffffffffffffffffffffffffff1673ffffffffffffffffffffffffffffffffffffffff16815260200190815260200160002060008373ffffffffffffffffffffffffffffffffffffffff1673ffffffffffffffffffffffffffffffffffffffff16815260200190815260200160002054905092915050565b6000600860008481526020019081526020016000209050806003018290806001815401808255809150506001900390600052602060002001600090919091909150908161138591906125d3565b507f53e7da7eb2351cbbb981559549909a3f04051fe3639af30952b214e2c32b0c3081600001548260010160009054906101000a900473ffffffffffffffffffffffffffffffffffffffff168360010160149054906101000a900460ff1684600201866040516113f9959493929190612c62565b60405180910390a1505050565b600033905090565b61141b838383600161166b565b505050565b600061142c84846112b1565b90507fffffffffffffffffffffffffffffffffffffffffffffffffffffffffffffffff81146114ae578181101561149e578281836040517ffb8f41b200000000000000000000000000000000000000000000000000000000815260040161149593929190612cc3565b60405180910390fd5b6114ad8484848403600061166b565b5b50505050565b600073ffffffffffffffffffffffffffffffffffffffff168373ffffffffffffffffffffffffffffffffffffffff16036115265760006040517f96c6fd1e00000000000000000000000000000000000000000000000000000000815260040161151d9190612310565b60405180910390fd5b600073ffffffffffffffffffffffffffffffffffffffff168273ffffffffffffffffffffffffffffffffffffffff16036115985760006040517fec442f0500000000000000000000000000000000000000000000000000000000815260040161158f9190612310565b60405180910390fd5b6115a3838383611842565b505050565b600073ffffffffffffffffffffffffffffffffffffffff168273ffffffffffffffffffffffffffffffffffffffff160361161a5760006040517fec442f050000000000000000000000000000000000000000000000000000000081526004016116119190612310565b60405180910390fd5b61162660008383611842565b5050565b6000606444423360405160200161164393929190612d63565b6040516020818303038152906040528051906020012060001c6116669190612dcf565b905090565b600073ffffffffffffffffffffffffffffffffffffffff168473ffffffffffffffffffffffffffffffffffffffff16036116dd5760006040517fe602df050000000000000000000000000000000000000000000000000000000081526004016116d49190612310565b60405180910390fd5b600073ffffffffffffffffffffffffffffffffffffffff168373ffffffffffffffffffffffffffffffffffffffff160361174f5760006040517f94280d620000000000000000000000000000000000000000000000000000000081526004016117469190612310565b60405180910390fd5b81600160008673ffffffffffffffffffffffffffffffffffffffff1673ffffffffffffffffffffffffffffffffffffffff16815260200190815260200160002060008573ffffffffffffffffffffffffffffffffffffffff1673ffffffffffffffffffffffffffffffffffffffff16815260200190815260200160002081905550801561183c578273ffffffffffffffffffffffffffffffffffffffff168473ffffffffffffffffffffffffffffffffffffffff167f8c5be1e5ebec7d5bd14f71427d1e84f3dd0314c0f7b2291e5b200ac8c7c3b925846040516118339190611f2d565b60405180910390a35b50505050565b600073ffffffffffffffffffffffffffffffffffffffff168373ffffffffffffffffffffffffffffffffffffffff160361189457806002600082825461188891906126d4565b92505081905550611967565b60008060008573ffffffffffffffffffffffffffffffffffffffff1673ffffffffffffffffffffffffffffffffffffffff16815260200190815260200160002054905081811015611920578381836040517fe450d38c00000000000000000000000000000000000000000000000000000000815260040161191793929190612cc3565b60405180910390fd5b8181036000808673ffffffffffffffffffffffffffffffffffffffff1673ffffffffffffffffffffffffffffffffffffffff16815260200190815260200160002081905550505b600073ffffffffffffffffffffffffffffffffffffffff168273ffffffffffffffffffffffffffffffffffffffff16036119b057806002600082825403925050819055506119fd565b806000808473ffffffffffffffffffffffffffffffffffffffff1673ffffffffffffffffffffffffffffffffffffffff168152602001908152602001600020600082825401925050819055505b8173ffffffffffffffffffffffffffffffffffffffff168373ffffffffffffffffffffffffffffffffffffffff167fddf252ad1be2c89b69c2b068fc378daa952ba7f163c4a11628f55a4df523b3ef83604051611a5a9190611f2d565b60405180910390a3505050565b828054828255906000526020600020908101928215611aaf579160200282015b82811115611aae578251829081611a9e91906125d3565b5091602001919060010190611a87565b5b509050611abc9190611b17565b5090565b6040518060a0016040528060008152602001600073ffffffffffffffffffffffffffffffffffffffff16815260200160006001811115611b0357611b02612049565b5b815260200160608152602001606081525090565b5b80821115611b375760008181611b2e9190611b3b565b50600101611b18565b5090565b508054611b47906123f6565b6000825580601f10611b595750611b78565b601f016020900490600052602060002090810190611b779190611b7b565b5b50565b5b80821115611b94576000816000905550600101611b7c565b5090565b600081519050919050565b600082825260208201905092915050565b60005b83811015611bd2578082015181840152602081019050611bb7565b60008484015250505050565b6000601f19601f8301169050919050565b6000611bfa82611b98565b611c048185611ba3565b9350611c14818560208601611bb4565b611c1d81611bde565b840191505092915050565b60006020820190508181036000830152611c428184611bef565b905092915050565b6000604051905090565b600080fd5b600080fd5b600073ffffffffffffffffffffffffffffffffffffffff82169050919050565b6000611c8982611c5e565b9050919050565b611c9981611c7e565b8114611ca457600080fd5b50565b600081359050611cb681611c90565b92915050565b6000819050919050565b611ccf81611cbc565b8114611cda57600080fd5b50565b600081359050611cec81611cc6565b92915050565b60008060408385031215611d0957611d08611c54565b5b6000611d1785828601611ca7565b9250506020611d2885828601611cdd565b9150509250929050565b60008115159050919050565b611d4781611d32565b82525050565b6000602082019050611d626000830184611d3e565b92915050565b60028110611d7557600080fd5b50565b600081359050611d8781611d68565b92915050565b600080fd5b600080fd5b7f4e487b7100000000000000000000000000000000000000000000000000000000600052604160045260246000fd5b611dcf82611bde565b810181811067ffffffffffffffff82111715611dee57611ded611d97565b5b80604052505050565b6000611e01611c4a565b9050611e0d8282611dc6565b919050565b600067ffffffffffffffff821115611e2d57611e2c611d97565b5b611e3682611bde565b9050602081019050919050565b82818337600083830152505050565b6000611e65611e6084611e12565b611df7565b905082815260208101848484011115611e8157611e80611d92565b5b611e8c848285611e43565b509392505050565b600082601f830112611ea957611ea8611d8d565b5b8135611eb9848260208601611e52565b91505092915050565b60008060408385031215611ed957611ed8611c54565b5b6000611ee785828601611d78565b925050602083013567ffffffffffffffff811115611f0857611f07611c59565b5b611f1485828601611e94565b9150509250929050565b611f2781611cbc565b82525050565b6000602082019050611f426000830184611f1e565b92915050565b600080600060608486031215611f6157611f60611c54565b5b6000611f6f86828701611ca7565b9350506020611f8086828701611ca7565b9250506040611f9186828701611cdd565b9150509250925092565b600060ff82169050919050565b611fb181611f9b565b82525050565b6000602082019050611fcc6000830184611fa8565b92915050565b600060208284031215611fe857611fe7611c54565b5b6000611ff684828501611ca7565b91505092915050565b600081519050919050565b600082825260208201905092915050565b6000819050602082019050919050565b61203481611cbc565b82525050565b61204381611c7e565b82525050565b7f4e487b7100000000000000000000000000000000000000000000000000000000600052602160045260246000fd5b6002811061208957612088612049565b5b50565b600081905061209a82612078565b919050565b60006120aa8261208c565b9050919050565b6120ba8161209f565b82525050565b600082825260208201905092915050565b60006120dc82611b98565b6120e681856120c0565b93506120f6818560208601611bb4565b6120ff81611bde565b840191505092915050565b600081519050919050565b600082825260208201905092915050565b6000819050602082019050919050565b600061214283836120d1565b905092915050565b6000602082019050919050565b60006121628261210a565b61216c8185612115565b93508360208202850161217e85612126565b8060005b858110156121ba578484038952815161219b8582612136565b94506121a68361214a565b925060208a01995050600181019050612182565b50829750879550505050505092915050565b600060a0830160008301516121e4600086018261202b565b5060208301516121f7602086018261203a565b50604083015161220a60408601826120b1565b506060830151848203606086015261222282826120d1565b9150506080830151848203608086015261223c8282612157565b9150508091505092915050565b600061225583836121cc565b905092915050565b6000602082019050919050565b600061227582611fff565b61227f818561200a565b9350836020820285016122918561201b565b8060005b858110156122cd57848403895281516122ae8582612249565b94506122b98361225d565b925060208a01995050600181019050612295565b50829750879550505050505092915050565b600060208201905081810360008301526122f9818461226a565b905092915050565b61230a81611c7e565b82525050565b60006020820190506123256000830184612301565b92915050565b6000806040838503121561234257612341611c54565b5b600061235085828601611cdd565b925050602083013567ffffffffffffffff81111561237157612370611c59565b5b61237d85828601611e94565b9150509250929050565b6000806040838503121561239e5761239d611c54565b5b60006123ac85828601611ca7565b92505060206123bd85828601611ca7565b9150509250929050565b7f4e487b7100000000000000000000000000000000000000000000000000000000600052602260045260246000fd5b6000600282049050600182168061240e57607f821691505b602082108103612421576124206123c7565b5b50919050565b60008190508160005260206000209050919050565b60006020601f8301049050919050565b600082821b905092915050565b6000600883026124897fffffffffffffffffffffffffffffffffffffffffffffffffffffffffffffffff8261244c565b612493868361244c565b95508019841693508086168417925050509392505050565b6000819050919050565b60006124d06124cb6124c684611cbc565b6124ab565b611cbc565b9050919050565b6000819050919050565b6124ea836124b5565b6124fe6124f6826124d7565b848454612459565b825550505050565b600090565b612513612506565b61251e8184846124e1565b505050565b5b818110156125425761253760008261250b565b600181019050612524565b5050565b601f8211156125875761255881612427565b6125618461243c565b81016020851015612570578190505b61258461257c8561243c565b830182612523565b50505b505050565b600082821c905092915050565b60006125aa6000198460080261258c565b1980831691505092915050565b60006125c38383612599565b9150826002028217905092915050565b6125dc82611b98565b67ffffffffffffffff8111156125f5576125f4611d97565b5b6125ff82546123f6565b61260a828285612546565b600060209050601f83116001811461263d576000841561262b578287015190505b61263585826125b7565b86555061269d565b601f19841661264b86612427565b60005b828110156126735784890151825560018201915060208501945060208101905061264e565b86831015612690578489015161268c601f891682612599565b8355505b6001600288020188555050505b505050505050565b7f4e487b7100000000000000000000000000000000000000000000000000000000600052601160045260246000fd5b60006126df82611cbc565b91506126ea83611cbc565b9250828201905080821115612702576127016126a5565b5b92915050565b6127118161209f565b82525050565b600060808201905061272c6000830187611f1e565b6127396020830186612301565b6127466040830185612708565b81810360608301526127588184611bef565b905095945050505050565b7f6d73672e76616c756520213d2073757276657950726963650000000000000000600082015250565b6000612799601883611ba3565b91506127a482612763565b602082019050919050565b600060208201905081810360008301526127c88161278c565b9050919050565b60006040820190506127e46000830185612708565b81810360208301526127f68184611bef565b90509392505050565b7f4e487b7100000000000000000000000000000000000000000000000000000000600052603260045260246000fd5b600061283982611cbc565b91507fffffffffffffffffffffffffffffffffffffffffffffffffffffffffffffffff820361286b5761286a6126a5565b5b600182019050919050565b60008151905061288581611cc6565b92915050565b6000602082840312156128a1576128a0611c54565b5b60006128af84828501612876565b91505092915050565b60006040820190506128cd6000830185612301565b6128da6020830184612301565b9392505050565b7f4e6f7420656e6f75676820746f6b656e73000000000000000000000000000000600082015250565b6000612917601183611ba3565b9150612922826128e1565b602082019050919050565b600060208201905081810360008301526129468161290a565b9050919050565b7f4e6f20746f6b656e207370656e64696e6720617070726f76616c000000000000600082015250565b6000612983601a83611ba3565b915061298e8261294d565b602082019050919050565b600060208201905081810360008301526129b281612976565b9050919050565b6000819050919050565b60006129de6129d96129d4846129b9565b6124ab565b611cbc565b9050919050565b6129ee816129c3565b82525050565b6000606082019050612a096000830186612301565b612a166020830185612301565b612a2360408301846129e5565b949350505050565b612a3481611d32565b8114612a3f57600080fd5b50565b600081519050612a5181612a2b565b92915050565b600060208284031215612a6d57612a6c611c54565b5b6000612a7b84828501612a42565b91505092915050565b7f5472616e73666572206661696c65640000000000000000000000000000000000600082015250565b6000612aba600f83611ba3565b9150612ac582612a84565b602082019050919050565b60006020820190508181036000830152612ae981612aad565b9050919050565b6000604082019050612b056000830185611f1e565b8181036020830152612b178184611bef565b90509392505050565b6000604082019050612b356000830185612301565b612b4260208301846129e5565b9392505050565b6000604082019050612b5e6000830185612301565b612b6b6020830184611f1e565b9392505050565b7f5072697a65207472616e73666572206661696c65640000000000000000000000600082015250565b6000612ba8601583611ba3565b9150612bb382612b72565b602082019050919050565b60006020820190508181036000830152612bd781612b9b565b9050919050565b60008154612beb816123f6565b612bf58186611ba3565b94506001821660008114612c105760018114612c2657612c59565b60ff198316865281151560200286019350612c59565b612c2f85612427565b60005b83811015612c5157815481890152600182019150602081019050612c32565b808801955050505b50505092915050565b600060a082019050612c776000830188611f1e565b612c846020830187612301565b612c916040830186612708565b8181036060830152612ca38185612bde565b90508181036080830152612cb78184611bef565b90509695505050505050565b6000606082019050612cd86000830186612301565b612ce56020830185611f1e565b612cf26040830184611f1e565b949350505050565b6000819050919050565b612d15612d1082611cbc565b612cfa565b82525050565b60008160601b9050919050565b6000612d3382612d1b565b9050919050565b6000612d4582612d28565b9050919050565b612d5d612d5882611c7e565b612d3a565b82525050565b6000612d6f8286612d04565b602082019150612d7f8285612d04565b602082019150612d8f8284612d4c565b601482019150819050949350505050565b7f4e487b7100000000000000000000000000000000000000000000000000000000600052601260045260246000fd5b6000612dda82611cbc565b9150612de583611cbc565b925082612df557612df4612da0565b5b82820690509291505056fea264697066735822122038e72cac03d2ccbc4ca479d4562ee2b9b3713ec97f9d4bb0e104ac3141582bd264736f6c63430008140033",
  "linkReferences": {},
  "deployedLinkReferences": {}
}