{
  "_format": "hh-sol-artifact-1",
  "contractName": "TallyRallyCombined",
  "sourceName": "contracts/TallyRallyCombined.sol",
  "abi": [
    {
      "inputs": [],
      "stateMutability": "nonpayable",
      "type": "constructor"
    },
    {
      "inputs": [
        {
          "internalType": "address",
          "name": "spender",
          "type": "address"
        },
        {
          "internalType": "uint256",
          "name": "allowance",
          "type": "uint256"
        },
        {
          "internalType": "uint256",
          "name": "needed",
          "type": "uint256"
        }
      ],
      "name": "ERC20InsufficientAllowance",
      "type": "error"
    },
    {
      "inputs": [
        {
          "internalType": "address",
          "name": "sender",
          "type": "address"
        },
        {
          "internalType": "uint256",
          "name": "balance",
          "type": "uint256"
        },
        {
          "internalType": "uint256",
          "name": "needed",
          "type": "uint256"
        }
      ],
      "name": "ERC20InsufficientBalance",
      "type": "error"
    },
    {
      "inputs": [
        {
          "internalType": "address",
          "name": "approver",
          "type": "address"
        }
      ],
      "name": "ERC20InvalidApprover",
      "type": "error"
    },
    {
      "inputs": [
        {
          "internalType": "address",
          "name": "receiver",
          "type": "address"
        }
      ],
      "name": "ERC20InvalidReceiver",
      "type": "error"
    },
    {
      "inputs": [
        {
          "internalType": "address",
          "name": "sender",
          "type": "address"
        }
      ],
      "name": "ERC20InvalidSender",
      "type": "error"
    },
    {
      "inputs": [
        {
          "internalType": "address",
          "name": "spender",
          "type": "address"
        }
      ],
      "name": "ERC20InvalidSpender",
      "type": "error"
    },
    {
      "anonymous": false,
      "inputs": [
        {
          "indexed": true,
          "internalType": "address",
          "name": "owner",
          "type": "address"
        },
        {
          "indexed": true,
          "internalType": "address",
          "name": "spender",
          "type": "address"
        },
        {
          "indexed": false,
          "internalType": "uint256",
          "name": "value",
          "type": "uint256"
        }
      ],
      "name": "Approval",
      "type": "event"
    },
    {
      "anonymous": false,
      "inputs": [
        {
          "indexed": true,
          "internalType": "address",
          "name": "player",
          "type": "address"
        }
      ],
      "name": "LotteryEntry",
      "type": "event"
    },
    {
      "anonymous": false,
      "inputs": [
        {
          "indexed": true,
          "internalType": "address",
          "name": "winner",
          "type": "address"
        },
        {
          "indexed": false,
          "internalType": "uint256",
          "name": "amount",
          "type": "uint256"
        }
      ],
      "name": "LotteryWin",
      "type": "event"
    },
    {
      "anonymous": false,
      "inputs": [
        {
          "indexed": false,
          "internalType": "uint256",
          "name": "id",
          "type": "uint256"
        },
        {
          "indexed": false,
          "internalType": "address",
          "name": "dataBuyer",
          "type": "address"
        },
        {
          "indexed": false,
          "internalType": "enum TallyRallyCombined.SurveyType",
          "name": "surveyType",
          "type": "uint8"
        },
        {
          "indexed": false,
          "internalType": "string",
          "name": "content",
          "type": "string"
        },
        {
          "indexed": false,
          "internalType": "string",
          "name": "answerCid",
          "type": "string"
        }
      ],
      "name": "SurveyAnswered",
      "type": "event"
    },
    {
      "anonymous": false,
      "inputs": [
        {
          "indexed": false,
          "internalType": "uint256",
          "name": "id",
          "type": "uint256"
        },
        {
          "indexed": false,
          "internalType": "address",
          "name": "dataBuyer",
          "type": "address"
        },
        {
          "indexed": false,
          "internalType": "enum TallyRallyCombined.SurveyType",
          "name": "surveyType",
          "type": "uint8"
        },
        {
          "indexed": false,
          "internalType": "string",
          "name": "content",
          "type": "string"
        }
      ],
      "name": "SurveyCreated",
      "type": "event"
    },
    {
      "anonymous": false,
      "inputs": [
        {
          "indexed": true,
          "internalType": "address",
          "name": "from",
          "type": "address"
        },
        {
          "indexed": true,
          "internalType": "address",
          "name": "to",
          "type": "address"
        },
        {
          "indexed": false,
          "internalType": "uint256",
          "name": "value",
          "type": "uint256"
        }
      ],
      "name": "Transfer",
      "type": "event"
    },
    {
      "inputs": [
        {
          "internalType": "address",
          "name": "owner",
          "type": "address"
        },
        {
          "internalType": "address",
          "name": "spender",
          "type": "address"
        }
      ],
      "name": "allowance",
      "outputs": [
        {
          "internalType": "uint256",
          "name": "",
          "type": "uint256"
        }
      ],
      "stateMutability": "view",
      "type": "function"
    },
    {
      "inputs": [
        {
          "internalType": "uint256",
          "name": "id",
          "type": "uint256"
        },
        {
          "internalType": "string",
          "name": "answerCid",
          "type": "string"
        }
      ],
      "name": "answerSurvey",
      "outputs": [],
      "stateMutability": "nonpayable",
      "type": "function"
    },
    {
      "inputs": [
        {
          "internalType": "uint256",
          "name": "id",
          "type": "uint256"
        },
        {
          "internalType": "string",
          "name": "answerCid",
          "type": "string"
        }
      ],
      "name": "answerSurveyMintTokenForOwner",
      "outputs": [],
      "stateMutability": "nonpayable",
      "type": "function"
    },
    {
      "inputs": [
        {
          "internalType": "address",
          "name": "spender",
          "type": "address"
        },
        {
          "internalType": "uint256",
          "name": "value",
          "type": "uint256"
        }
      ],
      "name": "approve",
      "outputs": [
        {
          "internalType": "bool",
          "name": "",
          "type": "bool"
        }
      ],
      "stateMutability": "nonpayable",
      "type": "function"
    },
    {
      "inputs": [
        {
          "internalType": "address",
          "name": "account",
          "type": "address"
        }
      ],
      "name": "balanceOf",
      "outputs": [
        {
          "internalType": "uint256",
          "name": "",
          "type": "uint256"
        }
      ],
      "stateMutability": "view",
      "type": "function"
    },
    {
      "inputs": [
        {
          "internalType": "enum TallyRallyCombined.SurveyType",
          "name": "surveyType",
          "type": "uint8"
        },
        {
          "internalType": "string",
          "name": "content",
          "type": "string"
        }
      ],
      "name": "createSurvey",
      "outputs": [],
      "stateMutability": "nonpayable",
      "type": "function"
    },
    {
      "inputs": [
        {
          "internalType": "enum TallyRallyCombined.SurveyType",
          "name": "surveyType",
          "type": "uint8"
        },
        {
          "internalType": "string",
          "name": "content",
          "type": "string"
        }
      ],
      "name": "createSurveyForBuyer",
      "outputs": [],
      "stateMutability": "payable",
      "type": "function"
    },
    {
      "inputs": [],
      "name": "decimals",
      "outputs": [
        {
          "internalType": "uint8",
          "name": "",
          "type": "uint8"
        }
      ],
      "stateMutability": "view",
      "type": "function"
    },
    {
      "inputs": [],
      "name": "getSurveys",
      "outputs": [
        {
          "components": [
            {
              "internalType": "uint256",
              "name": "id",
              "type": "uint256"
            },
            {
              "internalType": "address",
              "name": "dataBuyer",
              "type": "address"
            },
            {
              "internalType": "enum TallyRallyCombined.SurveyType",
              "name": "surveyType",
              "type": "uint8"
            },
            {
              "internalType": "string",
              "name": "content",
              "type": "string"
            },
            {
              "internalType": "string[]",
              "name": "answerCids",
              "type": "string[]"
            }
          ],
          "internalType": "struct TallyRallyCombined.Survey[]",
          "name": "",
          "type": "tuple[]"
        }
      ],
      "stateMutability": "view",
      "type": "function"
    },
    {
      "inputs": [
        {
          "internalType": "address",
          "name": "to",
          "type": "address"
        },
        {
          "internalType": "uint256",
          "name": "amount",
          "type": "uint256"
        }
      ],
      "name": "mint",
      "outputs": [],
      "stateMutability": "nonpayable",
      "type": "function"
    },
    {
      "inputs": [],
      "name": "name",
      "outputs": [
        {
          "internalType": "string",
          "name": "",
          "type": "string"
        }
      ],
      "stateMutability": "view",
      "type": "function"
    },
    {
      "inputs": [],
      "name": "owner",
      "outputs": [
        {
          "internalType": "address",
          "name": "",
          "type": "address"
        }
      ],
      "stateMutability": "view",
      "type": "function"
    },
    {
      "inputs": [],
      "name": "play",
      "outputs": [
        {
          "internalType": "bool",
          "name": "didWin",
          "type": "bool"
        }
      ],
      "stateMutability": "nonpayable",
      "type": "function"
    },
    {
      "inputs": [],
      "name": "playLottery",
      "outputs": [],
      "stateMutability": "nonpayable",
      "type": "function"
    },
    {
      "inputs": [],
      "name": "symbol",
      "outputs": [
        {
          "internalType": "string",
          "name": "",
          "type": "string"
        }
      ],
      "stateMutability": "view",
      "type": "function"
    },
    {
      "inputs": [],
      "name": "totalSupply",
      "outputs": [
        {
          "internalType": "uint256",
          "name": "",
          "type": "uint256"
        }
      ],
      "stateMutability": "view",
      "type": "function"
    },
    {
      "inputs": [
        {
          "internalType": "address",
          "name": "to",
          "type": "address"
        },
        {
          "internalType": "uint256",
          "name": "value",
          "type": "uint256"
        }
      ],
      "name": "transfer",
      "outputs": [
        {
          "internalType": "bool",
          "name": "",
          "type": "bool"
        }
      ],
      "stateMutability": "nonpayable",
      "type": "function"
    },
    {
      "inputs": [
        {
          "internalType": "address",
          "name": "from",
          "type": "address"
        },
        {
          "internalType": "address",
          "name": "to",
          "type": "address"
        },
        {
          "internalType": "uint256",
          "name": "value",
          "type": "uint256"
        }
      ],
      "name": "transferFrom",
      "outputs": [
        {
          "internalType": "bool",
          "name": "",
          "type": "bool"
        }
      ],
      "stateMutability": "nonpayable",
      "type": "function"
    }
  ],
  "bytecode": "0x6080604052662386f26fc100006006553480156200001c57600080fd5b506040518060400160405280600581526020017f4d415942450000000000000000000000000000000000000000000000000000008152506040518060400160405280600481526020017f4d4159420000000000000000000000000000000000000000000000000000000081525081600390816200009a919062000370565b508060049081620000ac919062000370565b50505033600560006101000a81548173ffffffffffffffffffffffffffffffffffffffff021916908373ffffffffffffffffffffffffffffffffffffffff16021790555062000457565b600081519050919050565b7f4e487b7100000000000000000000000000000000000000000000000000000000600052604160045260246000fd5b7f4e487b7100000000000000000000000000000000000000000000000000000000600052602260045260246000fd5b600060028204905060018216806200017857607f821691505b6020821081036200018e576200018d62000130565b5b50919050565b60008190508160005260206000209050919050565b60006020601f8301049050919050565b600082821b905092915050565b600060088302620001f87fffffffffffffffffffffffffffffffffffffffffffffffffffffffffffffffff82620001b9565b620002048683620001b9565b95508019841693508086168417925050509392505050565b6000819050919050565b6000819050919050565b6000620002516200024b62000245846200021c565b62000226565b6200021c565b9050919050565b6000819050919050565b6200026d8362000230565b620002856200027c8262000258565b848454620001c6565b825550505050565b600090565b6200029c6200028d565b620002a981848462000262565b505050565b5b81811015620002d157620002c560008262000292565b600181019050620002af565b5050565b601f8211156200032057620002ea8162000194565b620002f584620001a9565b8101602085101562000305578190505b6200031d6200031485620001a9565b830182620002ae565b50505b505050565b600082821c905092915050565b6000620003456000198460080262000325565b1980831691505092915050565b600062000360838362000332565b9150826002028217905092915050565b6200037b82620000f6565b67ffffffffffffffff81111562000397576200039662000101565b5b620003a382546200015f565b620003b0828285620002d5565b600060209050601f831160018114620003e85760008415620003d3578287015190505b620003df858262000352565b8655506200044f565b601f198416620003f88662000194565b60005b828110156200042257848901518255600182019150602085019450602081019050620003fb565b868310156200044257848901516200043e601f89168262000332565b8355505b6001600288020188555050505b505050505050565b612cd180620004676000396000f3fe6080604052600436106101095760003560e01c80637dec829611610095578063a9059cbb11610064578063a9059cbb14610360578063c1e82da01461039d578063d4cd77a3146103c6578063dd62ed3e146103dd578063e82ea2931461041a57610109565b80637dec8296146102b45780638da5cb5b146102df57806393e84cd91461030a57806395d89b411461033557610109565b806323b872dd116100dc57806323b872dd146101ca578063313ce5671461020757806340c10f19146102325780634fd22cac1461025b57806370a082311461027757610109565b806306fdde031461010e578063095ea7b3146101395780630c4639a51461017657806318160ddd1461019f575b600080fd5b34801561011a57600080fd5b50610123610443565b6040516101309190611ac3565b60405180910390f35b34801561014557600080fd5b50610160600480360381019061015b9190611b8d565b6104d5565b60405161016d9190611be8565b60405180910390f35b34801561018257600080fd5b5061019d60048036038101906101989190611d5d565b6104f8565b005b3480156101ab57600080fd5b506101b46106d9565b6040516101c19190611dc8565b60405180910390f35b3480156101d657600080fd5b506101f160048036038101906101ec9190611de3565b6106e3565b6040516101fe9190611be8565b60405180910390f35b34801561021357600080fd5b5061021c610712565b6040516102299190611e52565b60405180910390f35b34801561023e57600080fd5b5061025960048036038101906102549190611b8d565b61071b565b005b61027560048036038101906102709190611d5d565b610729565b005b34801561028357600080fd5b5061029e60048036038101906102999190611e6d565b6107de565b6040516102ab9190611dc8565b60405180910390f35b3480156102c057600080fd5b506102c9610826565b6040516102d6919061217a565b60405180910390f35b3480156102eb57600080fd5b506102f4610aec565b60405161030191906121ab565b60405180910390f35b34801561031657600080fd5b5061031f610b12565b60405161032c9190611be8565b60405180910390f35b34801561034157600080fd5b5061034a610daf565b6040516103579190611ac3565b60405180910390f35b34801561036c57600080fd5b5061038760048036038101906103829190611b8d565b610e41565b6040516103949190611be8565b60405180910390f35b3480156103a957600080fd5b506103c460048036038101906103bf91906121c6565b610e64565b005b3480156103d257600080fd5b506103db610f43565b005b3480156103e957600080fd5b5061040460048036038101906103ff9190612222565b61114c565b6040516104119190611dc8565b60405180910390f35b34801561042657600080fd5b50610441600480360381019061043c91906121c6565b6111d3565b005b60606003805461045290612291565b80601f016020809104026020016040519081016040528092919081815260200182805461047e90612291565b80156104cb5780601f106104a0576101008083540402835291602001916104cb565b820191906000526020600020905b8154815290600101906020018083116104ae57829003601f168201915b5050505050905090565b6000806104e06112a1565b90506104ed8185856112a9565b600191505092915050565b60008067ffffffffffffffff81111561051457610513611c32565b5b60405190808252806020026020018201604052801561054757816020015b60608152602001906001900390816105325790505b50905060006040518060a0016040528060075481526020013373ffffffffffffffffffffffffffffffffffffffff16815260200185600181111561058e5761058d611ee4565b5b8152602001848152602001838152509050806008600060075481526020019081526020016000206000820151816000015560208201518160010160006101000a81548173ffffffffffffffffffffffffffffffffffffffff021916908373ffffffffffffffffffffffffffffffffffffffff16021790555060408201518160010160146101000a81548160ff0219169083600181111561063157610630611ee4565b5b0217905550606082015181600201908161064b919061246e565b506080820151816003019080519060200190610668929190611902565b5090505060016007600082825461067f919061256f565b925050819055507f52b91a8adb16d2c942f8afd364522fa27a2ab2df5adb982db50443fc31c0529081600001518260200151836040015184606001516040516106cb94939291906125b2565b60405180910390a150505050565b6000600254905090565b6000806106ee6112a1565b90506106fb8582856112bb565b61070685858561134f565b60019150509392505050565b60006012905090565b6107258282611443565b5050565b600654341461076d576040517f08c379a00000000000000000000000000000000000000000000000000000000081526004016107649061264a565b60405180910390fd5b3073ffffffffffffffffffffffffffffffffffffffff16630c4639a583836040518363ffffffff1660e01b81526004016107a892919061266a565b600060405180830381600087803b1580156107c257600080fd5b505af11580156107d6573d6000803e3d6000fd5b505050505050565b60008060008373ffffffffffffffffffffffffffffffffffffffff1673ffffffffffffffffffffffffffffffffffffffff168152602001908152602001600020549050919050565b6060600060075467ffffffffffffffff81111561084657610845611c32565b5b60405190808252806020026020018201604052801561087f57816020015b61086c61195b565b8152602001906001900390816108645790505b50905060005b600754811015610ae457600860008281526020019081526020016000206040518060a0016040529081600082015481526020016001820160009054906101000a900473ffffffffffffffffffffffffffffffffffffffff1673ffffffffffffffffffffffffffffffffffffffff1673ffffffffffffffffffffffffffffffffffffffff1681526020016001820160149054906101000a900460ff16600181111561093257610931611ee4565b5b600181111561094457610943611ee4565b5b815260200160028201805461095890612291565b80601f016020809104026020016040519081016040528092919081815260200182805461098490612291565b80156109d15780601f106109a6576101008083540402835291602001916109d1565b820191906000526020600020905b8154815290600101906020018083116109b457829003601f168201915b5050505050815260200160038201805480602002602001604051908101604052809291908181526020016000905b82821015610aab578382906000526020600020018054610a1e90612291565b80601f0160208091040260200160405190810160405280929190818152602001828054610a4a90612291565b8015610a975780601f10610a6c57610100808354040283529160200191610a97565b820191906000526020600020905b815481529060010190602001808311610a7a57829003601f168201915b5050505050815260200190600101906109ff565b5050505081525050828281518110610ac657610ac561269a565b5b60200260200101819052508080610adc906126c9565b915050610885565b508091505090565b600560009054906101000a900473ffffffffffffffffffffffffffffffffffffffff1681565b6000803073ffffffffffffffffffffffffffffffffffffffff166370a08231336040518263ffffffff1660e01b8152600401610b4e91906121ab565b602060405180830381865afa158015610b6b573d6000803e3d6000fd5b505050506040513d601f19601f82011682018060405250810190610b8f9190612726565b905060003073ffffffffffffffffffffffffffffffffffffffff1663dd62ed3e33306040518363ffffffff1660e01b8152600401610bce929190612753565b602060405180830381865afa158015610beb573d6000803e3d6000fd5b505050506040513d601f19601f82011682018060405250810190610c0f9190612726565b90506001821015610c55576040517f08c379a0000000000000000000000000000000000000000000000000000000008152600401610c4c906127c8565b60405180910390fd5b6001811015610c99576040517f08c379a0000000000000000000000000000000000000000000000000000000008152600401610c9090612834565b60405180910390fd5b3073ffffffffffffffffffffffffffffffffffffffff166323b872dd33600060016040518463ffffffff1660e01b8152600401610cd89392919061288f565b6020604051808303816000875af1158015610cf7573d6000803e3d6000fd5b505050506040513d601f19601f82011682018060405250810190610d1b91906128f2565b610d5a576040517f08c379a0000000000000000000000000000000000000000000000000000000008152600401610d519061296b565b60405180910390fd5b3373ffffffffffffffffffffffffffffffffffffffff167f4c52daac3b1aee9c194804b914ba765bb9f1f2716030b0ac18ef25718a6962a060405160405180910390a2601e610da76114c5565b109250505090565b606060048054610dbe90612291565b80601f0160208091040260200160405190810160405280929190818152602001828054610dea90612291565b8015610e375780601f10610e0c57610100808354040283529160200191610e37565b820191906000526020600020905b815481529060010190602001808311610e1a57829003601f168201915b5050505050905090565b600080610e4c6112a1565b9050610e5981858561134f565b600191505092915050565b3073ffffffffffffffffffffffffffffffffffffffff1663e82ea29383836040518363ffffffff1660e01b8152600401610e9f92919061298b565b600060405180830381600087803b158015610eb957600080fd5b505af1158015610ecd573d6000803e3d6000fd5b505050503073ffffffffffffffffffffffffffffffffffffffff166340c10f193360016040518363ffffffff1660e01b8152600401610f0d9291906129bb565b600060405180830381600087803b158015610f2757600080fd5b505af1158015610f3b573d6000803e3d6000fd5b505050505050565b60003073ffffffffffffffffffffffffffffffffffffffff166393e84cd96040518163ffffffff1660e01b81526004016020604051808303816000875af1158015610f92573d6000803e3d6000fd5b505050506040513d601f19601f82011682018060405250810190610fb691906128f2565b905080156111495760003073ffffffffffffffffffffffffffffffffffffffff166370a08231306040518263ffffffff1660e01b8152600401610ff991906121ab565b602060405180830381865afa158015611016573d6000803e3d6000fd5b505050506040513d601f19601f8201168201806040525081019061103a9190612726565b90503373ffffffffffffffffffffffffffffffffffffffff167f59eb56f0aaebc4c2e1de6e254bc52af79350363a072c9ef59851f0d0861a9642826040516110829190611dc8565b60405180910390a23073ffffffffffffffffffffffffffffffffffffffff1663a9059cbb33836040518363ffffffff1660e01b81526004016110c59291906129e4565b6020604051808303816000875af11580156110e4573d6000803e3d6000fd5b505050506040513d601f19601f8201168201806040525081019061110891906128f2565b611147576040517f08c379a000000000000000000000000000000000000000000000000000000000815260040161113e90612a59565b60405180910390fd5b505b50565b6000600160008473ffffffffffffffffffffffffffffffffffffffff1673ffffffffffffffffffffffffffffffffffffffff16815260200190815260200160002060008373ffffffffffffffffffffffffffffffffffffffff1673ffffffffffffffffffffffffffffffffffffffff16815260200190815260200160002054905092915050565b60006008600084815260200190815260200160002090508060030182908060018154018082558091505060019003906000526020600020016000909190919091509081611220919061246e565b507f53e7da7eb2351cbbb981559549909a3f04051fe3639af30952b214e2c32b0c3081600001548260010160009054906101000a900473ffffffffffffffffffffffffffffffffffffffff168360010160149054906101000a900460ff168460020186604051611294959493929190612afd565b60405180910390a1505050565b600033905090565b6112b68383836001611506565b505050565b60006112c7848461114c565b90507fffffffffffffffffffffffffffffffffffffffffffffffffffffffffffffffff81146113495781811015611339578281836040517ffb8f41b200000000000000000000000000000000000000000000000000000000815260040161133093929190612b5e565b60405180910390fd5b61134884848484036000611506565b5b50505050565b600073ffffffffffffffffffffffffffffffffffffffff168373ffffffffffffffffffffffffffffffffffffffff16036113c15760006040517f96c6fd1e0000000000000000000000000000000000000000000000000000000081526004016113b891906121ab565b60405180910390fd5b600073ffffffffffffffffffffffffffffffffffffffff168273ffffffffffffffffffffffffffffffffffffffff16036114335760006040517fec442f0500000000000000000000000000000000000000000000000000000000815260040161142a91906121ab565b60405180910390fd5b61143e8383836116dd565b505050565b600073ffffffffffffffffffffffffffffffffffffffff168273ffffffffffffffffffffffffffffffffffffffff16036114b55760006040517fec442f050000000000000000000000000000000000000000000000000000000081526004016114ac91906121ab565b60405180910390fd5b6114c1600083836116dd565b5050565b600060644442336040516020016114de93929190612bfe565b6040516020818303038152906040528051906020012060001c6115019190612c6a565b905090565b600073ffffffffffffffffffffffffffffffffffffffff168473ffffffffffffffffffffffffffffffffffffffff16036115785760006040517fe602df0500000000000000000000000000000000000000000000000000000000815260040161156f91906121ab565b60405180910390fd5b600073ffffffffffffffffffffffffffffffffffffffff168373ffffffffffffffffffffffffffffffffffffffff16036115ea5760006040517f94280d620000000000000000000000000000000000000000000000000000000081526004016115e191906121ab565b60405180910390fd5b81600160008673ffffffffffffffffffffffffffffffffffffffff1673ffffffffffffffffffffffffffffffffffffffff16815260200190815260200160002060008573ffffffffffffffffffffffffffffffffffffffff1673ffffffffffffffffffffffffffffffffffffffff1681526020019081526020016000208190555080156116d7578273ffffffffffffffffffffffffffffffffffffffff168473ffffffffffffffffffffffffffffffffffffffff167f8c5be1e5ebec7d5bd14f71427d1e84f3dd0314c0f7b2291e5b200ac8c7c3b925846040516116ce9190611dc8565b60405180910390a35b50505050565b600073ffffffffffffffffffffffffffffffffffffffff168373ffffffffffffffffffffffffffffffffffffffff160361172f578060026000828254611723919061256f565b92505081905550611802565b60008060008573ffffffffffffffffffffffffffffffffffffffff1673ffffffffffffffffffffffffffffffffffffffff168152602001908152602001600020549050818110156117bb578381836040517fe450d38c0000000000000000000000000000000000000000000000000000000081526004016117b293929190612b5e565b60405180910390fd5b8181036000808673ffffffffffffffffffffffffffffffffffffffff1673ffffffffffffffffffffffffffffffffffffffff16815260200190815260200160002081905550505b600073ffffffffffffffffffffffffffffffffffffffff168273ffffffffffffffffffffffffffffffffffffffff160361184b5780600260008282540392505081905550611898565b806000808473ffffffffffffffffffffffffffffffffffffffff1673ffffffffffffffffffffffffffffffffffffffff168152602001908152602001600020600082825401925050819055505b8173ffffffffffffffffffffffffffffffffffffffff168373ffffffffffffffffffffffffffffffffffffffff167fddf252ad1be2c89b69c2b068fc378daa952ba7f163c4a11628f55a4df523b3ef836040516118f59190611dc8565b60405180910390a3505050565b82805482825590600052602060002090810192821561194a579160200282015b82811115611949578251829081611939919061246e565b5091602001919060010190611922565b5b50905061195791906119b2565b5090565b6040518060a0016040528060008152602001600073ffffffffffffffffffffffffffffffffffffffff1681526020016000600181111561199e5761199d611ee4565b5b815260200160608152602001606081525090565b5b808211156119d257600081816119c991906119d6565b506001016119b3565b5090565b5080546119e290612291565b6000825580601f106119f45750611a13565b601f016020900490600052602060002090810190611a129190611a16565b5b50565b5b80821115611a2f576000816000905550600101611a17565b5090565b600081519050919050565b600082825260208201905092915050565b60005b83811015611a6d578082015181840152602081019050611a52565b60008484015250505050565b6000601f19601f8301169050919050565b6000611a9582611a33565b611a9f8185611a3e565b9350611aaf818560208601611a4f565b611ab881611a79565b840191505092915050565b60006020820190508181036000830152611add8184611a8a565b905092915050565b6000604051905090565b600080fd5b600080fd5b600073ffffffffffffffffffffffffffffffffffffffff82169050919050565b6000611b2482611af9565b9050919050565b611b3481611b19565b8114611b3f57600080fd5b50565b600081359050611b5181611b2b565b92915050565b6000819050919050565b611b6a81611b57565b8114611b7557600080fd5b50565b600081359050611b8781611b61565b92915050565b60008060408385031215611ba457611ba3611aef565b5b6000611bb285828601611b42565b9250506020611bc385828601611b78565b9150509250929050565b60008115159050919050565b611be281611bcd565b82525050565b6000602082019050611bfd6000830184611bd9565b92915050565b60028110611c1057600080fd5b50565b600081359050611c2281611c03565b92915050565b600080fd5b600080fd5b7f4e487b7100000000000000000000000000000000000000000000000000000000600052604160045260246000fd5b611c6a82611a79565b810181811067ffffffffffffffff82111715611c8957611c88611c32565b5b80604052505050565b6000611c9c611ae5565b9050611ca88282611c61565b919050565b600067ffffffffffffffff821115611cc857611cc7611c32565b5b611cd182611a79565b9050602081019050919050565b82818337600083830152505050565b6000611d00611cfb84611cad565b611c92565b905082815260208101848484011115611d1c57611d1b611c2d565b5b611d27848285611cde565b509392505050565b600082601f830112611d4457611d43611c28565b5b8135611d54848260208601611ced565b91505092915050565b60008060408385031215611d7457611d73611aef565b5b6000611d8285828601611c13565b925050602083013567ffffffffffffffff811115611da357611da2611af4565b5b611daf85828601611d2f565b9150509250929050565b611dc281611b57565b82525050565b6000602082019050611ddd6000830184611db9565b92915050565b600080600060608486031215611dfc57611dfb611aef565b5b6000611e0a86828701611b42565b9350506020611e1b86828701611b42565b9250506040611e2c86828701611b78565b9150509250925092565b600060ff82169050919050565b611e4c81611e36565b82525050565b6000602082019050611e676000830184611e43565b92915050565b600060208284031215611e8357611e82611aef565b5b6000611e9184828501611b42565b91505092915050565b600081519050919050565b600082825260208201905092915050565b6000819050602082019050919050565b611ecf81611b57565b82525050565b611ede81611b19565b82525050565b7f4e487b7100000000000000000000000000000000000000000000000000000000600052602160045260246000fd5b60028110611f2457611f23611ee4565b5b50565b6000819050611f3582611f13565b919050565b6000611f4582611f27565b9050919050565b611f5581611f3a565b82525050565b600082825260208201905092915050565b6000611f7782611a33565b611f818185611f5b565b9350611f91818560208601611a4f565b611f9a81611a79565b840191505092915050565b600081519050919050565b600082825260208201905092915050565b6000819050602082019050919050565b6000611fdd8383611f6c565b905092915050565b6000602082019050919050565b6000611ffd82611fa5565b6120078185611fb0565b93508360208202850161201985611fc1565b8060005b8581101561205557848403895281516120368582611fd1565b945061204183611fe5565b925060208a0199505060018101905061201d565b50829750879550505050505092915050565b600060a08301600083015161207f6000860182611ec6565b5060208301516120926020860182611ed5565b5060408301516120a56040860182611f4c565b50606083015184820360608601526120bd8282611f6c565b915050608083015184820360808601526120d78282611ff2565b9150508091505092915050565b60006120f08383612067565b905092915050565b6000602082019050919050565b600061211082611e9a565b61211a8185611ea5565b93508360208202850161212c85611eb6565b8060005b85811015612168578484038952815161214985826120e4565b9450612154836120f8565b925060208a01995050600181019050612130565b50829750879550505050505092915050565b600060208201905081810360008301526121948184612105565b905092915050565b6121a581611b19565b82525050565b60006020820190506121c0600083018461219c565b92915050565b600080604083850312156121dd576121dc611aef565b5b60006121eb85828601611b78565b925050602083013567ffffffffffffffff81111561220c5761220b611af4565b5b61221885828601611d2f565b9150509250929050565b6000806040838503121561223957612238611aef565b5b600061224785828601611b42565b925050602061225885828601611b42565b9150509250929050565b7f4e487b7100000000000000000000000000000000000000000000000000000000600052602260045260246000fd5b600060028204905060018216806122a957607f821691505b6020821081036122bc576122bb612262565b5b50919050565b60008190508160005260206000209050919050565b60006020601f8301049050919050565b600082821b905092915050565b6000600883026123247fffffffffffffffffffffffffffffffffffffffffffffffffffffffffffffffff826122e7565b61232e86836122e7565b95508019841693508086168417925050509392505050565b6000819050919050565b600061236b61236661236184611b57565b612346565b611b57565b9050919050565b6000819050919050565b61238583612350565b61239961239182612372565b8484546122f4565b825550505050565b600090565b6123ae6123a1565b6123b981848461237c565b505050565b5b818110156123dd576123d26000826123a6565b6001810190506123bf565b5050565b601f821115612422576123f3816122c2565b6123fc846122d7565b8101602085101561240b578190505b61241f612417856122d7565b8301826123be565b50505b505050565b600082821c905092915050565b600061244560001984600802612427565b1980831691505092915050565b600061245e8383612434565b9150826002028217905092915050565b61247782611a33565b67ffffffffffffffff8111156124905761248f611c32565b5b61249a8254612291565b6124a58282856123e1565b600060209050601f8311600181146124d857600084156124c6578287015190505b6124d08582612452565b865550612538565b601f1984166124e6866122c2565b60005b8281101561250e578489015182556001820191506020850194506020810190506124e9565b8683101561252b5784890151612527601f891682612434565b8355505b6001600288020188555050505b505050505050565b7f4e487b7100000000000000000000000000000000000000000000000000000000600052601160045260246000fd5b600061257a82611b57565b915061258583611b57565b925082820190508082111561259d5761259c612540565b5b92915050565b6125ac81611f3a565b82525050565b60006080820190506125c76000830187611db9565b6125d4602083018661219c565b6125e160408301856125a3565b81810360608301526125f38184611a8a565b905095945050505050565b7f6d73672e76616c756520213d2073757276657950726963650000000000000000600082015250565b6000612634601883611a3e565b915061263f826125fe565b602082019050919050565b6000602082019050818103600083015261266381612627565b9050919050565b600060408201905061267f60008301856125a3565b81810360208301526126918184611a8a565b90509392505050565b7f4e487b7100000000000000000000000000000000000000000000000000000000600052603260045260246000fd5b60006126d482611b57565b91507fffffffffffffffffffffffffffffffffffffffffffffffffffffffffffffffff820361270657612705612540565b5b600182019050919050565b60008151905061272081611b61565b92915050565b60006020828403121561273c5761273b611aef565b5b600061274a84828501612711565b91505092915050565b6000604082019050612768600083018561219c565b612775602083018461219c565b9392505050565b7f4e6f7420656e6f75676820746f6b656e73000000000000000000000000000000600082015250565b60006127b2601183611a3e565b91506127bd8261277c565b602082019050919050565b600060208201905081810360008301526127e1816127a5565b9050919050565b7f4e6f20746f6b656e207370656e64696e6720617070726f76616c000000000000600082015250565b600061281e601a83611a3e565b9150612829826127e8565b602082019050919050565b6000602082019050818103600083015261284d81612811565b9050919050565b6000819050919050565b600061287961287461286f84612854565b612346565b611b57565b9050919050565b6128898161285e565b82525050565b60006060820190506128a4600083018661219c565b6128b1602083018561219c565b6128be6040830184612880565b949350505050565b6128cf81611bcd565b81146128da57600080fd5b50565b6000815190506128ec816128c6565b92915050565b60006020828403121561290857612907611aef565b5b6000612916848285016128dd565b91505092915050565b7f5472616e73666572206661696c65640000000000000000000000000000000000600082015250565b6000612955600f83611a3e565b91506129608261291f565b602082019050919050565b6000602082019050818103600083015261298481612948565b9050919050565b60006040820190506129a06000830185611db9565b81810360208301526129b28184611a8a565b90509392505050565b60006040820190506129d0600083018561219c565b6129dd6020830184612880565b9392505050565b60006040820190506129f9600083018561219c565b612a066020830184611db9565b9392505050565b7f5072697a65207472616e73666572206661696c65640000000000000000000000600082015250565b6000612a43601583611a3e565b9150612a4e82612a0d565b602082019050919050565b60006020820190508181036000830152612a7281612a36565b9050919050565b60008154612a8681612291565b612a908186611a3e565b94506001821660008114612aab5760018114612ac157612af4565b60ff198316865281151560200286019350612af4565b612aca856122c2565b60005b83811015612aec57815481890152600182019150602081019050612acd565b808801955050505b50505092915050565b600060a082019050612b126000830188611db9565b612b1f602083018761219c565b612b2c60408301866125a3565b8181036060830152612b3e8185612a79565b90508181036080830152612b528184611a8a565b90509695505050505050565b6000606082019050612b73600083018661219c565b612b806020830185611db9565b612b8d6040830184611db9565b949350505050565b6000819050919050565b612bb0612bab82611b57565b612b95565b82525050565b60008160601b9050919050565b6000612bce82612bb6565b9050919050565b6000612be082612bc3565b9050919050565b612bf8612bf382611b19565b612bd5565b82525050565b6000612c0a8286612b9f565b602082019150612c1a8285612b9f565b602082019150612c2a8284612be7565b601482019150819050949350505050565b7f4e487b7100000000000000000000000000000000000000000000000000000000600052601260045260246000fd5b6000612c7582611b57565b9150612c8083611b57565b925082612c9057612c8f612c3b565b5b82820690509291505056fea26469706673582212207463c92311725ab2916d0e1be79933294c8819c35936529fc7d80a754bb19f5764736f6c63430008140033",
  "linkReferences": {},
  "deployedLinkReferences": {}
}